{
  "contractName": "IoTDataNotarization",
  "abi": [
    {
      "anonymous": false,
      "inputs": [
        {
          "indexed": false,
          "internalType": "string",
          "name": "deviceId",
          "type": "string"
        },
        {
          "indexed": false,
          "internalType": "uint256",
          "name": "humidity",
          "type": "uint256"
        }
      ],
      "name": "HumidityAlert",
      "type": "event"
    },
    {
      "anonymous": false,
      "inputs": [
        {
          "indexed": false,
          "internalType": "string",
          "name": "deviceId",
          "type": "string"
        },
        {
          "indexed": false,
          "internalType": "uint256",
          "name": "temperature",
          "type": "uint256"
        }
      ],
      "name": "TemperatureAlert",
      "type": "event"
    },
    {
      "inputs": [
        {
          "internalType": "string",
          "name": "",
          "type": "string"
        }
      ],
      "name": "devices",
      "outputs": [
        {
          "components": [
            {
              "internalType": "uint256",
              "name": "temperature",
              "type": "uint256"
            },
            {
              "internalType": "uint256",
              "name": "timestamp",
              "type": "uint256"
            }
          ],
          "internalType": "struct IoTDataNotarization.TemperatureRecord",
          "name": "temperatureRecord",
          "type": "tuple"
        },
        {
          "components": [
            {
              "internalType": "uint256",
              "name": "humidity",
              "type": "uint256"
            },
            {
              "internalType": "uint256",
              "name": "timestamp",
              "type": "uint256"
            }
          ],
          "internalType": "struct IoTDataNotarization.HumidityRecord",
          "name": "humidityRecord",
          "type": "tuple"
        }
      ],
      "stateMutability": "view",
      "type": "function",
      "constant": true
    },
    {
      "inputs": [],
      "name": "humidityThreshold",
      "outputs": [
        {
          "internalType": "uint256",
          "name": "",
          "type": "uint256"
        }
      ],
      "stateMutability": "view",
      "type": "function",
      "constant": true
    },
    {
      "inputs": [],
      "name": "temperatureThreshold",
      "outputs": [
        {
          "internalType": "uint256",
          "name": "",
          "type": "uint256"
        }
      ],
      "stateMutability": "view",
      "type": "function",
      "constant": true
    },
    {
      "inputs": [
        {
          "internalType": "uint256",
          "name": "_temperatureThreshold",
          "type": "uint256"
        }
      ],
      "name": "setTemperatureThreshold",
      "outputs": [],
      "stateMutability": "nonpayable",
      "type": "function"
    },
    {
      "inputs": [
        {
          "internalType": "uint256",
          "name": "_humidityThreshold",
          "type": "uint256"
        }
      ],
      "name": "setHumidityThreshold",
      "outputs": [],
      "stateMutability": "nonpayable",
      "type": "function"
    },
    {
      "inputs": [
        {
          "internalType": "string",
          "name": "deviceId",
          "type": "string"
        },
        {
          "internalType": "uint256",
          "name": "temperature",
          "type": "uint256"
        }
      ],
      "name": "recordTemperature",
      "outputs": [],
      "stateMutability": "nonpayable",
      "type": "function"
    },
    {
      "inputs": [
        {
          "internalType": "string",
          "name": "deviceId",
          "type": "string"
        },
        {
          "internalType": "uint256",
          "name": "humidity",
          "type": "uint256"
        }
      ],
      "name": "recordHumidity",
      "outputs": [],
      "stateMutability": "nonpayable",
      "type": "function"
    },
    {
      "inputs": [
        {
          "internalType": "string",
          "name": "deviceId",
          "type": "string"
        }
      ],
      "name": "readTemperatureRecord",
      "outputs": [
        {
          "components": [
            {
              "internalType": "uint256",
              "name": "temperature",
              "type": "uint256"
            },
            {
              "internalType": "uint256",
              "name": "timestamp",
              "type": "uint256"
            }
          ],
          "internalType": "struct IoTDataNotarization.TemperatureRecord",
          "name": "",
          "type": "tuple"
        }
      ],
      "stateMutability": "view",
      "type": "function",
      "constant": true
    },
    {
      "inputs": [
        {
          "internalType": "string",
          "name": "deviceId",
          "type": "string"
        }
      ],
      "name": "readHumidityRecord",
      "outputs": [
        {
          "components": [
            {
              "internalType": "uint256",
              "name": "humidity",
              "type": "uint256"
            },
            {
              "internalType": "uint256",
              "name": "timestamp",
              "type": "uint256"
            }
          ],
          "internalType": "struct IoTDataNotarization.HumidityRecord",
          "name": "",
          "type": "tuple"
        }
      ],
      "stateMutability": "view",
      "type": "function",
      "constant": true
    }
  ],
  "bytecode": "0x608060405234801561001057600080fd5b50610901806100206000396000f3fe608060405234801561001057600080fd5b50600436106100935760003560e01c80636842e6a2116100665780636842e6a2146101335780638106ab3f1461014f578063ae0dcb6a1461016d578063b2e9b56514610189578063ca7df630146101a557610093565b806322233396146100985780632acb9122146100c9578063303932fa146100e7578063513d0ab814610103575b600080fd5b6100b260048036038101906100ad91906105cb565b6101d5565b6040516100c092919061068b565b60405180910390f35b6100d161024b565b6040516100de91906106c3565b60405180910390f35b61010160048036038101906100fc919061070a565b610251565b005b61011d600480360381019061011891906105cb565b61025b565b60405161012a9190610737565b60405180910390f35b61014d6004803603810190610148919061070a565b6102aa565b005b6101576102b4565b60405161016491906106c3565b60405180910390f35b61018760048036038101906101829190610752565b6102ba565b005b6101a3600480360381019061019e9190610752565b610354565b005b6101bf60048036038101906101ba91906105cb565b6103ee565b6040516101cc91906107ae565b60405180910390f35b6000818051602081018201805184825260208301602085012081835280955050505050506000915090508060000160405180604001604052908160008201548152602001600182015481525050908060020160405180604001604052908160008201548152602001600182015481525050905082565b60025481565b8060028190555050565b61026361043d565b600082604051610273919061083a565b9081526020016040518091039020600001604051806040016040529081600082015481526020016001820154815250509050919050565b8060018190555050565b60015481565b60006040518060400160405280838152602001428152509050806000846040516102e4919061083a565b90815260200160405180910390206002016000820151816000015560208201518160010155905050600254821061034f577f2f6a4c18f32abf0426f54098825f1a847b572d8256f408756c11ca1ffa61ff9d838360405161034692919061089b565b60405180910390a15b505050565b600060405180604001604052808381526020014281525090508060008460405161037e919061083a565b9081526020016040518091039020600001600082015181600001556020820151816001015590505060015482106103e9577f616353d079e5e6157a6c74b083e4233a4627783abf18bfa5508be66debf5c8c383836040516103e092919061089b565b60405180910390a15b505050565b6103f6610457565b600082604051610406919061083a565b9081526020016040518091039020600201604051806040016040529081600082015481526020016001820154815250509050919050565b604051806040016040528060008152602001600081525090565b604051806040016040528060008152602001600081525090565b6000604051905090565b600080fd5b600080fd5b600080fd5b600080fd5b6000601f19601f8301169050919050565b7f4e487b7100000000000000000000000000000000000000000000000000000000600052604160045260246000fd5b6104d88261048f565b810181811067ffffffffffffffff821117156104f7576104f66104a0565b5b80604052505050565b600061050a610471565b905061051682826104cf565b919050565b600067ffffffffffffffff821115610536576105356104a0565b5b61053f8261048f565b9050602081019050919050565b82818337600083830152505050565b600061056e6105698461051b565b610500565b90508281526020810184848401111561058a5761058961048a565b5b61059584828561054c565b509392505050565b600082601f8301126105b2576105b1610485565b5b81356105c284826020860161055b565b91505092915050565b6000602082840312156105e1576105e061047b565b5b600082013567ffffffffffffffff8111156105ff576105fe610480565b5b61060b8482850161059d565b91505092915050565b6000819050919050565b61062781610614565b82525050565b604082016000820151610643600085018261061e565b506020820151610656602085018261061e565b50505050565b604082016000820151610672600085018261061e565b506020820151610685602085018261061e565b50505050565b60006080820190506106a0600083018561062d565b6106ad604083018461065c565b9392505050565b6106bd81610614565b82525050565b60006020820190506106d860008301846106b4565b92915050565b6106e781610614565b81146106f257600080fd5b50565b600081359050610704816106de565b92915050565b6000602082840312156107205761071f61047b565b5b600061072e848285016106f5565b91505092915050565b600060408201905061074c600083018461062d565b92915050565b600080604083850312156107695761076861047b565b5b600083013567ffffffffffffffff81111561078757610786610480565b5b6107938582860161059d565b92505060206107a4858286016106f5565b9150509250929050565b60006040820190506107c3600083018461065c565b92915050565b600081519050919050565b600081905092915050565b60005b838110156107fd5780820151818401526020810190506107e2565b60008484015250505050565b6000610814826107c9565b61081e81856107d4565b935061082e8185602086016107df565b80840191505092915050565b60006108468284610809565b915081905092915050565b600082825260208201905092915050565b600061086d826107c9565b6108778185610851565b93506108878185602086016107df565b6108908161048f565b840191505092915050565b600060408201905081810360008301526108b58185610862565b90506108c460208301846106b4565b939250505056fea26469706673582212207b264b07c3b729572c69c098c5d5d4fc1e918d3aa408f66e753693ad7734ec0f64736f6c63430008130033",
  "immutableReferences": {},
  "source": "// SPDX-License-Identifier: MIT\r\npragma solidity ^0.8.0;\r\n\r\ncontract IoTDataNotarization {\r\n    struct TemperatureRecord {\r\n        uint temperature;\r\n        uint timestamp;\r\n    }\r\n\r\n    struct HumidityRecord {\r\n        uint humidity;\r\n        uint timestamp; \r\n    }\r\n\r\n    struct Device {\r\n        TemperatureRecord temperatureRecord;\r\n        HumidityRecord humidityRecord;\r\n    }\r\n\r\n    mapping(string => Device) public devices;\r\n\r\n    //Limit thresholds for Event Logs\r\n    uint public temperatureThreshold;\r\n    uint public humidityThreshold;\r\n\r\n    //Events\r\n    event TemperatureAlert(string deviceId, uint temperature);\r\n    event HumidityAlert(string deviceId, uint humidity);\r\n\r\n    //Functions to set thresholds\r\n    function setTemperatureThreshold(uint _temperatureThreshold) public {\r\n        temperatureThreshold = _temperatureThreshold;\r\n    }\r\n\r\n    function setHumidityThreshold(uint _humidityThreshold) public {\r\n        humidityThreshold = _humidityThreshold;\r\n    }\r\n\r\n    //Functions for notarizing data\r\n    function recordTemperature(string memory deviceId, uint temperature) public {\r\n        TemperatureRecord memory tempRecord = TemperatureRecord(temperature, block.timestamp);\r\n        devices[deviceId].temperatureRecord = tempRecord;\r\n\r\n        if(temperature >= temperatureThreshold) {\r\n            emit TemperatureAlert(deviceId, temperature);\r\n        }\r\n    }\r\n\r\n    function recordHumidity(string memory deviceId, uint humidity) public {\r\n        HumidityRecord memory humidRecord = HumidityRecord(humidity, block.timestamp);\r\n        devices[deviceId].humidityRecord = humidRecord;\r\n\r\n        if(humidity >= humidityThreshold) {\r\n            emit HumidityAlert(deviceId, humidity);\r\n        }\r\n    }\r\n\r\n    //Functions for reading laetst notarized data\r\n    function readTemperatureRecord(string memory deviceId) public view returns (TemperatureRecord memory) {\r\n        return devices[deviceId].temperatureRecord;\r\n    }\r\n\r\n    function readHumidityRecord(string memory deviceId) public view returns (HumidityRecord memory) {\r\n        return devices[deviceId].humidityRecord;\r\n    }\r\n}\r\n",
  "sourcePath": "C:\\Users\\alexc\\OneDrive\\Documenti\\GitHub\\Modbus2ChainETH\\contracts\\IoTDataNotarization.sol",
  "compiler": {
    "name": "solc",
    "version": "0.8.19+commit.7dd6d404.Emscripten.clang"
  },
  "schemaVersion": "3.4.16",
  "updatedAt": "2024-01-04T12:03:26.129Z",
  "networkType": "ethereum",
  "devdoc": {
    "kind": "dev",
    "methods": {},
    "version": 1
  },
  "userdoc": {
    "kind": "user",
    "methods": {},
    "version": 1
  }
}